{
  "address": "0x0165878A594ca255338adfa4d48449f69242Eb8F",
  "abi": [
    {
      "inputs": [
        {
          "internalType": "address",
          "name": "_seller",
          "type": "address"
        },
        {
          "internalType": "address",
          "name": "_nftAddress",
          "type": "address"
        },
        {
          "internalType": "uint256",
          "name": "_tokenId",
          "type": "uint256"
        },
        {
          "internalType": "uint256",
          "name": "_startPrice",
          "type": "uint256"
        },
        {
          "internalType": "uint256",
          "name": "_duration",
          "type": "uint256"
        },
        {
          "internalType": "address",
          "name": "_usdc",
          "type": "address"
        },
        {
          "internalType": "address",
          "name": "_dai",
          "type": "address"
        },
        {
          "internalType": "address",
          "name": "_usdt",
          "type": "address"
        },
        {
          "internalType": "address",
          "name": "_priceOracle",
          "type": "address"
        }
      ],
      "stateMutability": "nonpayable",
      "type": "constructor"
    },
    {
      "anonymous": false,
      "inputs": [
        {
          "indexed": false,
          "internalType": "address",
          "name": "winner",
          "type": "address"
        },
        {
          "indexed": true,
          "internalType": "address",
          "name": "coinAddr",
          "type": "address"
        },
        {
          "indexed": false,
          "internalType": "uint256",
          "name": "amount",
          "type": "uint256"
        }
      ],
      "name": "AuctionEnded",
      "type": "event"
    },
    {
      "anonymous": false,
      "inputs": [
        {
          "indexed": true,
          "internalType": "address",
          "name": "seller",
          "type": "address"
        },
        {
          "indexed": true,
          "internalType": "address",
          "name": "nft",
          "type": "address"
        },
        {
          "indexed": false,
          "internalType": "uint256",
          "name": "tokenId",
          "type": "uint256"
        },
        {
          "indexed": false,
          "internalType": "uint256",
          "name": "startPrice",
          "type": "uint256"
        },
        {
          "indexed": false,
          "internalType": "uint256",
          "name": "endTime",
          "type": "uint256"
        }
      ],
      "name": "AuctionStarted",
      "type": "event"
    },
    {
      "anonymous": false,
      "inputs": [
        {
          "indexed": true,
          "internalType": "address",
          "name": "bidder",
          "type": "address"
        },
        {
          "indexed": true,
          "internalType": "address",
          "name": "coinAddr",
          "type": "address"
        },
        {
          "indexed": false,
          "internalType": "uint256",
          "name": "amount",
          "type": "uint256"
        },
        {
          "indexed": false,
          "internalType": "uint256",
          "name": "usdValue",
          "type": "uint256"
        }
      ],
      "name": "NewBid",
      "type": "event"
    },
    {
      "anonymous": false,
      "inputs": [
        {
          "indexed": true,
          "internalType": "address",
          "name": "bidder",
          "type": "address"
        },
        {
          "indexed": true,
          "internalType": "address",
          "name": "coinAddr",
          "type": "address"
        },
        {
          "indexed": false,
          "internalType": "uint256",
          "name": "amount",
          "type": "uint256"
        }
      ],
      "name": "Withdraw",
      "type": "event"
    },
    {
      "inputs": [
        {
          "internalType": "address",
          "name": "coinAddr",
          "type": "address"
        },
        {
          "internalType": "uint256",
          "name": "amount",
          "type": "uint256"
        }
      ],
      "name": "bid",
      "outputs": [],
      "stateMutability": "payable",
      "type": "function"
    },
    {
      "inputs": [],
      "name": "dai",
      "outputs": [
        {
          "internalType": "address",
          "name": "",
          "type": "address"
        }
      ],
      "stateMutability": "view",
      "type": "function"
    },
    {
      "inputs": [],
      "name": "endAuction",
      "outputs": [],
      "stateMutability": "nonpayable",
      "type": "function"
    },
    {
      "inputs": [],
      "name": "endTime",
      "outputs": [
        {
          "internalType": "uint256",
          "name": "",
          "type": "uint256"
        }
      ],
      "stateMutability": "view",
      "type": "function"
    },
    {
      "inputs": [],
      "name": "ended",
      "outputs": [
        {
          "internalType": "bool",
          "name": "",
          "type": "bool"
        }
      ],
      "stateMutability": "view",
      "type": "function"
    },
    {
      "inputs": [],
      "name": "eth",
      "outputs": [
        {
          "internalType": "address",
          "name": "",
          "type": "address"
        }
      ],
      "stateMutability": "view",
      "type": "function"
    },
    {
      "inputs": [
        {
          "internalType": "address",
          "name": "coinAddr",
          "type": "address"
        },
        {
          "internalType": "uint256",
          "name": "amount",
          "type": "uint256"
        }
      ],
      "name": "getUsdValue",
      "outputs": [
        {
          "internalType": "uint256",
          "name": "",
          "type": "uint256"
        }
      ],
      "stateMutability": "view",
      "type": "function"
    },
    {
      "inputs": [],
      "name": "highestBidAmount",
      "outputs": [
        {
          "internalType": "uint256",
          "name": "",
          "type": "uint256"
        }
      ],
      "stateMutability": "view",
      "type": "function"
    },
    {
      "inputs": [],
      "name": "highestBidToken",
      "outputs": [
        {
          "internalType": "address",
          "name": "",
          "type": "address"
        }
      ],
      "stateMutability": "view",
      "type": "function"
    },
    {
      "inputs": [],
      "name": "highestBidUsd",
      "outputs": [
        {
          "internalType": "uint256",
          "name": "",
          "type": "uint256"
        }
      ],
      "stateMutability": "view",
      "type": "function"
    },
    {
      "inputs": [],
      "name": "highestBidder",
      "outputs": [
        {
          "internalType": "address",
          "name": "",
          "type": "address"
        }
      ],
      "stateMutability": "view",
      "type": "function"
    },
    {
      "inputs": [],
      "name": "nftAddress",
      "outputs": [
        {
          "internalType": "address",
          "name": "",
          "type": "address"
        }
      ],
      "stateMutability": "view",
      "type": "function"
    },
    {
      "inputs": [
        {
          "internalType": "address",
          "name": "userAddr",
          "type": "address"
        },
        {
          "internalType": "address",
          "name": "coinAddr",
          "type": "address"
        }
      ],
      "name": "pendingReturns",
      "outputs": [
        {
          "internalType": "uint256",
          "name": "amount",
          "type": "uint256"
        }
      ],
      "stateMutability": "view",
      "type": "function"
    },
    {
      "inputs": [],
      "name": "priceOracle",
      "outputs": [
        {
          "internalType": "address",
          "name": "",
          "type": "address"
        }
      ],
      "stateMutability": "view",
      "type": "function"
    },
    {
      "inputs": [],
      "name": "seller",
      "outputs": [
        {
          "internalType": "address",
          "name": "",
          "type": "address"
        }
      ],
      "stateMutability": "view",
      "type": "function"
    },
    {
      "inputs": [],
      "name": "startPrice",
      "outputs": [
        {
          "internalType": "uint256",
          "name": "",
          "type": "uint256"
        }
      ],
      "stateMutability": "view",
      "type": "function"
    },
    {
      "inputs": [],
      "name": "tokenId",
      "outputs": [
        {
          "internalType": "uint256",
          "name": "",
          "type": "uint256"
        }
      ],
      "stateMutability": "view",
      "type": "function"
    },
    {
      "inputs": [],
      "name": "usdc",
      "outputs": [
        {
          "internalType": "address",
          "name": "",
          "type": "address"
        }
      ],
      "stateMutability": "view",
      "type": "function"
    },
    {
      "inputs": [],
      "name": "usdt",
      "outputs": [
        {
          "internalType": "address",
          "name": "",
          "type": "address"
        }
      ],
      "stateMutability": "view",
      "type": "function"
    },
    {
      "inputs": [
        {
          "internalType": "address",
          "name": "coinAddr",
          "type": "address"
        }
      ],
      "name": "withdraw",
      "outputs": [],
      "stateMutability": "nonpayable",
      "type": "function"
    }
  ],
  "transactionHash": "0xef1863b379af6654783ba23ba5df8e7fbd2ed8bbe6867b6b7497efb64284dda9",
  "args": [
    "0xf39Fd6e51aad88F6F4ce6aB8827279cffFb92266",
    "0xe7f1725E7734CE288F8367e1Bb143E90bb3F0512",
    1,
    100,
    3600,
    "0x65afadd39029741b3b8f0756952c74678c9cec93",
    "0x8ab2ef2c3bd1ea0e6b6a6ba2e63c7ba5ea1e7c1a",
    "0x509ee0d083ddf8ac028f2a56731412edd63223b9",
    "0x5FbDB2315678afecb367f032d93F642f64180aa3"
  ],
  "numDeployments": 2,
  "solcInputHash": "36f189e085cd96d73ce9f46893970c85",
  "bytecode": "0x608060405234801561001057600080fd5b5060405161203f38038061203f83398181016040528101906100329190610373565b88600560006101000a81548173ffffffffffffffffffffffffffffffffffffffff021916908373ffffffffffffffffffffffffffffffffffffffff16021790555087600660006101000a81548173ffffffffffffffffffffffffffffffffffffffff021916908373ffffffffffffffffffffffffffffffffffffffff160217905550866007819055508560088190555084426100ce919061046c565b60098190555083600260006101000a81548173ffffffffffffffffffffffffffffffffffffffff021916908373ffffffffffffffffffffffffffffffffffffffff16021790555082600360006101000a81548173ffffffffffffffffffffffffffffffffffffffff021916908373ffffffffffffffffffffffffffffffffffffffff16021790555081600460006101000a81548173ffffffffffffffffffffffffffffffffffffffff021916908373ffffffffffffffffffffffffffffffffffffffff160217905550806000806101000a81548173ffffffffffffffffffffffffffffffffffffffff021916908373ffffffffffffffffffffffffffffffffffffffff1602179055506000600160006101000a81548173ffffffffffffffffffffffffffffffffffffffff021916908373ffffffffffffffffffffffffffffffffffffffff160217905550600660009054906101000a900473ffffffffffffffffffffffffffffffffffffffff1673ffffffffffffffffffffffffffffffffffffffff16600560009054906101000a900473ffffffffffffffffffffffffffffffffffffffff1673ffffffffffffffffffffffffffffffffffffffff167f23817ba079932ce77facf12249d946e69012525002900283e8e73d920c5c54f16007546008546009546040516102c4939291906104af565b60405180910390a35050505050505050506104e6565b600080fd5b600073ffffffffffffffffffffffffffffffffffffffff82169050919050565b600061030a826102df565b9050919050565b61031a816102ff565b811461032557600080fd5b50565b60008151905061033781610311565b92915050565b6000819050919050565b6103508161033d565b811461035b57600080fd5b50565b60008151905061036d81610347565b92915050565b60008060008060008060008060006101208a8c031215610396576103956102da565b5b60006103a48c828d01610328565b99505060206103b58c828d01610328565b98505060406103c68c828d0161035e565b97505060606103d78c828d0161035e565b96505060806103e88c828d0161035e565b95505060a06103f98c828d01610328565b94505060c061040a8c828d01610328565b93505060e061041b8c828d01610328565b92505061010061042d8c828d01610328565b9150509295985092959850929598565b7f4e487b7100000000000000000000000000000000000000000000000000000000600052601160045260246000fd5b60006104778261033d565b91506104828361033d565b925082820190508082111561049a5761049961043d565b5b92915050565b6104a98161033d565b82525050565b60006060820190506104c460008301866104a0565b6104d160208301856104a0565b6104de60408301846104a0565b949350505050565b611b4a806104f56000396000f3fe60806040526004361061011f5760003560e01c80635bf8633a116100a0578063c4556b9b11610064578063c4556b9b146103aa578063c660d112146103d5578063f1a9af8914610412578063f4b9fa751461043d578063fe67a54b146104685761011f565b80635bf8633a146102c1578063643745fb146102ec5780638c7c9e0c146103295780638f9b48741461035457806391f901571461037f5761011f565b80632f48ab7d116100e75780632f48ab7d146101fb5780633197cbb6146102265780633e413bee1461025157806351cff8d91461027c57806359d667a5146102a55761011f565b806308551a531461012457806312fa6feb1461014f57806317d70f7c1461017a5780632630c12f146101a55780632cbc8668146101d0575b600080fd5b34801561013057600080fd5b5061013961047f565b60405161014691906114a2565b60405180910390f35b34801561015b57600080fd5b506101646104a5565b60405161017191906114d8565b60405180910390f35b34801561018657600080fd5b5061018f6104b8565b60405161019c919061150c565b60405180910390f35b3480156101b157600080fd5b506101ba6104be565b6040516101c791906114a2565b60405180910390f35b3480156101dc57600080fd5b506101e56104e2565b6040516101f2919061150c565b60405180910390f35b34801561020757600080fd5b506102106104e8565b60405161021d91906114a2565b60405180910390f35b34801561023257600080fd5b5061023b61050e565b604051610248919061150c565b60405180910390f35b34801561025d57600080fd5b50610266610514565b60405161027391906114a2565b60405180910390f35b34801561028857600080fd5b506102a3600480360381019061029e9190611558565b61053a565b005b6102bf60048036038101906102ba91906115b1565b6107e9565b005b3480156102cd57600080fd5b506102d6610a5f565b6040516102e391906114a2565b60405180910390f35b3480156102f857600080fd5b50610313600480360381019061030e91906115f1565b610a85565b604051610320919061150c565b60405180910390f35b34801561033557600080fd5b5061033e610aaa565b60405161034b91906114a2565b60405180910390f35b34801561036057600080fd5b50610369610ad0565b604051610376919061150c565b60405180910390f35b34801561038b57600080fd5b50610394610ad6565b6040516103a191906114a2565b60405180910390f35b3480156103b657600080fd5b506103bf610afc565b6040516103cc91906114a2565b60405180910390f35b3480156103e157600080fd5b506103fc60048036038101906103f791906115b1565b610b22565b604051610409919061150c565b60405180910390f35b34801561041e57600080fd5b50610427610f79565b604051610434919061150c565b60405180910390f35b34801561044957600080fd5b50610452610f7f565b60405161045f91906114a2565b60405180910390f35b34801561047457600080fd5b5061047d610fa5565b005b600560009054906101000a900473ffffffffffffffffffffffffffffffffffffffff1681565b600e60009054906101000a900460ff1681565b60075481565b60008054906101000a900473ffffffffffffffffffffffffffffffffffffffff1681565b600d5481565b600460009054906101000a900473ffffffffffffffffffffffffffffffffffffffff1681565b60095481565b600260009054906101000a900473ffffffffffffffffffffffffffffffffffffffff1681565b6000600f60003373ffffffffffffffffffffffffffffffffffffffff1673ffffffffffffffffffffffffffffffffffffffff16815260200190815260200160002060008373ffffffffffffffffffffffffffffffffffffffff1673ffffffffffffffffffffffffffffffffffffffff168152602001908152602001600020549050600081116105fe576040517f08c379a00000000000000000000000000000000000000000000000000000000081526004016105f59061168e565b60405180910390fd5b6000600f60003373ffffffffffffffffffffffffffffffffffffffff1673ffffffffffffffffffffffffffffffffffffffff16815260200190815260200160002060008473ffffffffffffffffffffffffffffffffffffffff1673ffffffffffffffffffffffffffffffffffffffff16815260200190815260200160002081905550600073ffffffffffffffffffffffffffffffffffffffff168273ffffffffffffffffffffffffffffffffffffffff1603610700573373ffffffffffffffffffffffffffffffffffffffff166108fc829081150290604051600060405180830381858888f193505050501580156106fa573d6000803e3d6000fd5b50610780565b8173ffffffffffffffffffffffffffffffffffffffff1663a9059cbb33836040518363ffffffff1660e01b815260040161073b9291906116ae565b6020604051808303816000875af115801561075a573d6000803e3d6000fd5b505050506040513d601f19601f8201168201806040525081019061077e9190611703565b505b8173ffffffffffffffffffffffffffffffffffffffff163373ffffffffffffffffffffffffffffffffffffffff167f9b1bfa7fa9ee420a16e124f794c35ac9f90472acc99140eb2f6447c714cad8eb836040516107dd919061150c565b60405180910390a35050565b600954421061082d576040517f08c379a00000000000000000000000000000000000000000000000000000000081526004016108249061177c565b60405180910390fd5b60006108398383610b22565b9050600d54811161087f576040517f08c379a0000000000000000000000000000000000000000000000000000000008152600401610876906117e8565b60405180910390fd5b6000600d541461096357600c54600f6000600a60009054906101000a900473ffffffffffffffffffffffffffffffffffffffff1673ffffffffffffffffffffffffffffffffffffffff1673ffffffffffffffffffffffffffffffffffffffff1681526020019081526020016000206000600b60009054906101000a900473ffffffffffffffffffffffffffffffffffffffff1673ffffffffffffffffffffffffffffffffffffffff1673ffffffffffffffffffffffffffffffffffffffff168152602001908152602001600020600082825461095b9190611837565b925050819055505b33600a60006101000a81548173ffffffffffffffffffffffffffffffffffffffff021916908373ffffffffffffffffffffffffffffffffffffffff16021790555082600b60006101000a81548173ffffffffffffffffffffffffffffffffffffffff021916908373ffffffffffffffffffffffffffffffffffffffff16021790555081600c8190555080600d819055508273ffffffffffffffffffffffffffffffffffffffff163373ffffffffffffffffffffffffffffffffffffffff167fb0255fc648c57268b3e31f2f68cee14205bb16649bd2691a2db4d12d8e3175e18484604051610a5292919061186b565b60405180910390a3505050565b600660009054906101000a900473ffffffffffffffffffffffffffffffffffffffff1681565b600f602052816000526040600020602052806000526040600020600091509150505481565b600160009054906101000a900473ffffffffffffffffffffffffffffffffffffffff1681565b600c5481565b600a60009054906101000a900473ffffffffffffffffffffffffffffffffffffffff1681565b600b60009054906101000a900473ffffffffffffffffffffffffffffffffffffffff1681565b60008073ffffffffffffffffffffffffffffffffffffffff168373ffffffffffffffffffffffffffffffffffffffff1603610c125760008060009054906101000a900473ffffffffffffffffffffffffffffffffffffffff1673ffffffffffffffffffffffffffffffffffffffff1663302145996040518163ffffffff1660e01b8152600401602060405180830381865afa158015610bc5573d6000803e3d6000fd5b505050506040513d601f19601f82011682018060405250810190610be991906118ca565b9050670de0b6b3a76400008184610c0091906118f7565b610c0a9190611968565b915050610f73565b600260009054906101000a900473ffffffffffffffffffffffffffffffffffffffff1673ffffffffffffffffffffffffffffffffffffffff168373ffffffffffffffffffffffffffffffffffffffff1603610d1d5760008060009054906101000a900473ffffffffffffffffffffffffffffffffffffffff1673ffffffffffffffffffffffffffffffffffffffff1663faca04b96040518163ffffffff1660e01b8152600401602060405180830381865afa158015610cd5573d6000803e3d6000fd5b505050506040513d601f19601f82011682018060405250810190610cf991906118ca565b9050620f42408184610d0b91906118f7565b610d159190611968565b915050610f73565b600360009054906101000a900473ffffffffffffffffffffffffffffffffffffffff1673ffffffffffffffffffffffffffffffffffffffff168373ffffffffffffffffffffffffffffffffffffffff1603610e2d5760008060009054906101000a900473ffffffffffffffffffffffffffffffffffffffff1673ffffffffffffffffffffffffffffffffffffffff1663f3ed5ae86040518163ffffffff1660e01b8152600401602060405180830381865afa158015610de0573d6000803e3d6000fd5b505050506040513d601f19601f82011682018060405250810190610e0491906118ca565b9050670de0b6b3a76400008184610e1b91906118f7565b610e259190611968565b915050610f73565b600460009054906101000a900473ffffffffffffffffffffffffffffffffffffffff1673ffffffffffffffffffffffffffffffffffffffff168373ffffffffffffffffffffffffffffffffffffffff1603610f385760008060009054906101000a900473ffffffffffffffffffffffffffffffffffffffff1673ffffffffffffffffffffffffffffffffffffffff16639d791e446040518163ffffffff1660e01b8152600401602060405180830381865afa158015610ef0573d6000803e3d6000fd5b505050506040513d601f19601f82011682018060405250810190610f1491906118ca565b9050620f42408184610f2691906118f7565b610f309190611968565b915050610f73565b6040517f08c379a0000000000000000000000000000000000000000000000000000000008152600401610f6a906119e5565b60405180910390fd5b92915050565b60085481565b600360009054906101000a900473ffffffffffffffffffffffffffffffffffffffff1681565b600954421015610fea576040517f08c379a0000000000000000000000000000000000000000000000000000000008152600401610fe190611a51565b60405180910390fd5b600e60009054906101000a900460ff161561103a576040517f08c379a000000000000000000000000000000000000000000000000000000000815260040161103190611abd565b60405180910390fd5b6001600e60006101000a81548160ff021916908315150217905550600073ffffffffffffffffffffffffffffffffffffffff16600a60009054906101000a900473ffffffffffffffffffffffffffffffffffffffff1673ffffffffffffffffffffffffffffffffffffffff161461131357600660009054906101000a900473ffffffffffffffffffffffffffffffffffffffff1673ffffffffffffffffffffffffffffffffffffffff166342842e0e600560009054906101000a900473ffffffffffffffffffffffffffffffffffffffff16600a60009054906101000a900473ffffffffffffffffffffffffffffffffffffffff166007546040518463ffffffff1660e01b815260040161115093929190611add565b600060405180830381600087803b15801561116a57600080fd5b505af115801561117e573d6000803e3d6000fd5b50505050600073ffffffffffffffffffffffffffffffffffffffff16600b60009054906101000a900473ffffffffffffffffffffffffffffffffffffffff1673ffffffffffffffffffffffffffffffffffffffff160361124857600560009054906101000a900473ffffffffffffffffffffffffffffffffffffffff1673ffffffffffffffffffffffffffffffffffffffff166108fc600c549081150290604051600060405180830381858888f19350505050158015611242573d6000803e3d6000fd5b5061130e565b600b60009054906101000a900473ffffffffffffffffffffffffffffffffffffffff1673ffffffffffffffffffffffffffffffffffffffff1663a9059cbb600560009054906101000a900473ffffffffffffffffffffffffffffffffffffffff16600c546040518363ffffffff1660e01b81526004016112c99291906116ae565b6020604051808303816000875af11580156112e8573d6000803e3d6000fd5b505050506040513d601f19601f8201168201806040525081019061130c9190611703565b505b6113c9565b600660009054906101000a900473ffffffffffffffffffffffffffffffffffffffff1673ffffffffffffffffffffffffffffffffffffffff166342842e0e30600560009054906101000a900473ffffffffffffffffffffffffffffffffffffffff166007546040518463ffffffff1660e01b815260040161139693929190611add565b600060405180830381600087803b1580156113b057600080fd5b505af11580156113c4573d6000803e3d6000fd5b505050505b600b60009054906101000a900473ffffffffffffffffffffffffffffffffffffffff1673ffffffffffffffffffffffffffffffffffffffff167f8d08286bc520f0199dd11872725cfed598c29e3b91002b37ccf3e0d701e7cf9e600a60009054906101000a900473ffffffffffffffffffffffffffffffffffffffff16600c546040516114579291906116ae565b60405180910390a2565b600073ffffffffffffffffffffffffffffffffffffffff82169050919050565b600061148c82611461565b9050919050565b61149c81611481565b82525050565b60006020820190506114b76000830184611493565b92915050565b60008115159050919050565b6114d2816114bd565b82525050565b60006020820190506114ed60008301846114c9565b92915050565b6000819050919050565b611506816114f3565b82525050565b600060208201905061152160008301846114fd565b92915050565b600080fd5b61153581611481565b811461154057600080fd5b50565b6000813590506115528161152c565b92915050565b60006020828403121561156e5761156d611527565b5b600061157c84828501611543565b91505092915050565b61158e816114f3565b811461159957600080fd5b50565b6000813590506115ab81611585565b92915050565b600080604083850312156115c8576115c7611527565b5b60006115d685828601611543565b92505060206115e78582860161159c565b9150509250929050565b6000806040838503121561160857611607611527565b5b600061161685828601611543565b925050602061162785828601611543565b9150509250929050565b600082825260208201905092915050565b7f4e6f2066756e6473000000000000000000000000000000000000000000000000600082015250565b6000611678600883611631565b915061168382611642565b602082019050919050565b600060208201905081810360008301526116a78161166b565b9050919050565b60006040820190506116c36000830185611493565b6116d060208301846114fd565b9392505050565b6116e0816114bd565b81146116eb57600080fd5b50565b6000815190506116fd816116d7565b92915050565b60006020828403121561171957611718611527565b5b6000611727848285016116ee565b91505092915050565b7f41756374696f6e20656e64656400000000000000000000000000000000000000600082015250565b6000611766600d83611631565b915061177182611730565b602082019050919050565b6000602082019050818103600083015261179581611759565b9050919050565b7f42696420746f6f206c6f77000000000000000000000000000000000000000000600082015250565b60006117d2600b83611631565b91506117dd8261179c565b602082019050919050565b60006020820190508181036000830152611801816117c5565b9050919050565b7f4e487b7100000000000000000000000000000000000000000000000000000000600052601160045260246000fd5b6000611842826114f3565b915061184d836114f3565b925082820190508082111561186557611864611808565b5b92915050565b600060408201905061188060008301856114fd565b61188d60208301846114fd565b9392505050565b6000819050919050565b6118a781611894565b81146118b257600080fd5b50565b6000815190506118c48161189e565b92915050565b6000602082840312156118e0576118df611527565b5b60006118ee848285016118b5565b91505092915050565b6000611902826114f3565b915061190d836114f3565b925082820261191b816114f3565b9150828204841483151761193257611931611808565b5b5092915050565b7f4e487b7100000000000000000000000000000000000000000000000000000000600052601260045260246000fd5b6000611973826114f3565b915061197e836114f3565b92508261198e5761198d611939565b5b828204905092915050565b7f556e737570706f7274656420746f6b656e000000000000000000000000000000600082015250565b60006119cf601183611631565b91506119da82611999565b602082019050919050565b600060208201905081810360008301526119fe816119c2565b9050919050565b7f41756374696f6e206e6f742079657420656e6465640000000000000000000000600082015250565b6000611a3b601583611631565b9150611a4682611a05565b602082019050919050565b60006020820190508181036000830152611a6a81611a2e565b9050919050565b7f41756374696f6e20616c726561647920656e6465640000000000000000000000600082015250565b6000611aa7601583611631565b9150611ab282611a71565b602082019050919050565b60006020820190508181036000830152611ad681611a9a565b9050919050565b6000606082019050611af26000830186611493565b611aff6020830185611493565b611b0c60408301846114fd565b94935050505056fea2646970667358221220e7dfda706795ebd8b414ae0b4be5504caf1b1087e6241f49d157f18955fb0a1f64736f6c634300081c0033",
  "devdoc": {
    "kind": "dev",
    "methods": {},
    "version": 1
  },
  "userdoc": {
    "kind": "user",
    "methods": {
      "withdraw(address)": {
        "notice": " 1. Reentrancy Attack  2.      3.   "
      }
    },
    "version": 1
  },
  "storageLayout": {
    "storage": [
      {
        "astId": 7385,
        "contract": "contracts/auction.sol:Auction",
        "label": "priceOracle",
        "offset": 0,
        "slot": "0",
        "type": "t_address"
      },
      {
        "astId": 7387,
        "contract": "contracts/auction.sol:Auction",
        "label": "eth",
        "offset": 0,
        "slot": "1",
        "type": "t_address"
      },
      {
        "astId": 7389,
        "contract": "contracts/auction.sol:Auction",
        "label": "usdc",
        "offset": 0,
        "slot": "2",
        "type": "t_address"
      },
      {
        "astId": 7391,
        "contract": "contracts/auction.sol:Auction",
        "label": "dai",
        "offset": 0,
        "slot": "3",
        "type": "t_address"
      },
      {
        "astId": 7393,
        "contract": "contracts/auction.sol:Auction",
        "label": "usdt",
        "offset": 0,
        "slot": "4",
        "type": "t_address"
      },
      {
        "astId": 7395,
        "contract": "contracts/auction.sol:Auction",
        "label": "seller",
        "offset": 0,
        "slot": "5",
        "type": "t_address"
      },
      {
        "astId": 7397,
        "contract": "contracts/auction.sol:Auction",
        "label": "nftAddress",
        "offset": 0,
        "slot": "6",
        "type": "t_address"
      },
      {
        "astId": 7399,
        "contract": "contracts/auction.sol:Auction",
        "label": "tokenId",
        "offset": 0,
        "slot": "7",
        "type": "t_uint256"
      },
      {
        "astId": 7401,
        "contract": "contracts/auction.sol:Auction",
        "label": "startPrice",
        "offset": 0,
        "slot": "8",
        "type": "t_uint256"
      },
      {
        "astId": 7403,
        "contract": "contracts/auction.sol:Auction",
        "label": "endTime",
        "offset": 0,
        "slot": "9",
        "type": "t_uint256"
      },
      {
        "astId": 7405,
        "contract": "contracts/auction.sol:Auction",
        "label": "highestBidder",
        "offset": 0,
        "slot": "10",
        "type": "t_address"
      },
      {
        "astId": 7407,
        "contract": "contracts/auction.sol:Auction",
        "label": "highestBidToken",
        "offset": 0,
        "slot": "11",
        "type": "t_address"
      },
      {
        "astId": 7409,
        "contract": "contracts/auction.sol:Auction",
        "label": "highestBidAmount",
        "offset": 0,
        "slot": "12",
        "type": "t_uint256"
      },
      {
        "astId": 7411,
        "contract": "contracts/auction.sol:Auction",
        "label": "highestBidUsd",
        "offset": 0,
        "slot": "13",
        "type": "t_uint256"
      },
      {
        "astId": 7413,
        "contract": "contracts/auction.sol:Auction",
        "label": "ended",
        "offset": 0,
        "slot": "14",
        "type": "t_bool"
      },
      {
        "astId": 7419,
        "contract": "contracts/auction.sol:Auction",
        "label": "pendingReturns",
        "offset": 0,
        "slot": "15",
        "type": "t_mapping(t_address,t_mapping(t_address,t_uint256))"
      }
    ],
    "types": {
      "t_address": {
        "encoding": "inplace",
        "label": "address",
        "numberOfBytes": "20"
      },
      "t_bool": {
        "encoding": "inplace",
        "label": "bool",
        "numberOfBytes": "1"
      },
      "t_mapping(t_address,t_mapping(t_address,t_uint256))": {
        "encoding": "mapping",
        "key": "t_address",
        "label": "mapping(address => mapping(address => uint256))",
        "numberOfBytes": "32",
        "value": "t_mapping(t_address,t_uint256)"
      },
      "t_mapping(t_address,t_uint256)": {
        "encoding": "mapping",
        "key": "t_address",
        "label": "mapping(address => uint256)",
        "numberOfBytes": "32",
        "value": "t_uint256"
      },
      "t_uint256": {
        "encoding": "inplace",
        "label": "uint256",
        "numberOfBytes": "32"
      }
    }
  }
}