{
  "address": "0x5FbDB2315678afecb367f032d93F642f64180aa3",
  "abi": [
    {
      "inputs": [
        {
          "internalType": "address",
          "name": "ethUsdFeed",
          "type": "address"
        },
        {
          "internalType": "address",
          "name": "usdcUsdFeed",
          "type": "address"
        },
        {
          "internalType": "address",
          "name": "daiUsdFeed",
          "type": "address"
        },
        {
          "internalType": "address",
          "name": "usdtUsdFeed",
          "type": "address"
        }
      ],
      "stateMutability": "nonpayable",
      "type": "constructor"
    },
    {
      "inputs": [],
      "name": "daiUsdPriceFeed",
      "outputs": [
        {
          "internalType": "contract AggregatorV3Interface",
          "name": "",
          "type": "address"
        }
      ],
      "stateMutability": "view",
      "type": "function"
    },
    {
      "inputs": [],
      "name": "ethUsdPriceFeed",
      "outputs": [
        {
          "internalType": "contract AggregatorV3Interface",
          "name": "",
          "type": "address"
        }
      ],
      "stateMutability": "view",
      "type": "function"
    },
    {
      "inputs": [],
      "name": "getLatestDaiUsdPrice",
      "outputs": [
        {
          "internalType": "int256",
          "name": "",
          "type": "int256"
        }
      ],
      "stateMutability": "view",
      "type": "function"
    },
    {
      "inputs": [],
      "name": "getLatestEthUsdPrice",
      "outputs": [
        {
          "internalType": "int256",
          "name": "",
          "type": "int256"
        }
      ],
      "stateMutability": "view",
      "type": "function"
    },
    {
      "inputs": [],
      "name": "getLatestUsdcUsdPrice",
      "outputs": [
        {
          "internalType": "int256",
          "name": "",
          "type": "int256"
        }
      ],
      "stateMutability": "view",
      "type": "function"
    },
    {
      "inputs": [],
      "name": "getLatestUsdtUsdPrice",
      "outputs": [
        {
          "internalType": "int256",
          "name": "",
          "type": "int256"
        }
      ],
      "stateMutability": "view",
      "type": "function"
    },
    {
      "inputs": [],
      "name": "usdcUsdPriceFeed",
      "outputs": [
        {
          "internalType": "contract AggregatorV3Interface",
          "name": "",
          "type": "address"
        }
      ],
      "stateMutability": "view",
      "type": "function"
    },
    {
      "inputs": [],
      "name": "usdtUsdPriceFeed",
      "outputs": [
        {
          "internalType": "contract AggregatorV3Interface",
          "name": "",
          "type": "address"
        }
      ],
      "stateMutability": "view",
      "type": "function"
    }
  ],
  "transactionHash": "0x59779bb1a4e4b26f6ad598f34e91ab65f1e476e0bdbce700a254baf2f43d378f",
  "args": [
    "0x694AA1769357215DE4FAC081bf1f309aDC325306",
    "0x0A6513e40db6EB1b165753AD52E80663aeA50545",
    "0x0d79df66BE487753B02D015Fb622DED7f0E9798d",
    "0xc16679aad21eb7d1d45ab1fa80c05e81ea1cd02f"
  ],
  "numDeployments": 1,
  "solcInputHash": "36f189e085cd96d73ce9f46893970c85",
  "bytecode": "0x608060405234801561001057600080fd5b506040516108d43803806108d4833981810160405281019061003291906101a1565b836000806101000a81548173ffffffffffffffffffffffffffffffffffffffff021916908373ffffffffffffffffffffffffffffffffffffffff16021790555082600160006101000a81548173ffffffffffffffffffffffffffffffffffffffff021916908373ffffffffffffffffffffffffffffffffffffffff16021790555081600260006101000a81548173ffffffffffffffffffffffffffffffffffffffff021916908373ffffffffffffffffffffffffffffffffffffffff16021790555080600360006101000a81548173ffffffffffffffffffffffffffffffffffffffff021916908373ffffffffffffffffffffffffffffffffffffffff16021790555050505050610208565b600080fd5b600073ffffffffffffffffffffffffffffffffffffffff82169050919050565b600061016e82610143565b9050919050565b61017e81610163565b811461018957600080fd5b50565b60008151905061019b81610175565b92915050565b600080600080608085870312156101bb576101ba61013e565b5b60006101c98782880161018c565b94505060206101da8782880161018c565b93505060406101eb8782880161018c565b92505060606101fc8782880161018c565b91505092959194509250565b6106bd806102176000396000f3fe608060405234801561001057600080fd5b50600436106100885760003560e01c80639a3ed70b1161005b5780639a3ed70b146101055780639d791e4414610123578063f3ed5ae814610141578063faca04b91461015f57610088565b806315dfe1e61461008d57806330214599146100ab57806342f6fb29146100c95780635e49ff39146100e7575b600080fd5b61009561017d565b6040516100a29190610514565b60405180910390f35b6100b36101a3565b6040516100c09190610548565b60405180910390f35b6100d1610242565b6040516100de9190610514565b60405180910390f35b6100ef610266565b6040516100fc9190610514565b60405180910390f35b61010d61028c565b60405161011a9190610514565b60405180910390f35b61012b6102b2565b6040516101389190610548565b60405180910390f35b610149610353565b6040516101569190610548565b60405180910390f35b6101676103f4565b6040516101749190610548565b60405180910390f35b600260009054906101000a900473ffffffffffffffffffffffffffffffffffffffff1681565b60008060008054906101000a900473ffffffffffffffffffffffffffffffffffffffff1673ffffffffffffffffffffffffffffffffffffffff1663feaf968c6040518163ffffffff1660e01b815260040160a060405180830381865afa158015610211573d6000803e3d6000fd5b505050506040513d601f19601f82011682018060405250810190610235919061060c565b5050509150508091505090565b60008054906101000a900473ffffffffffffffffffffffffffffffffffffffff1681565b600160009054906101000a900473ffffffffffffffffffffffffffffffffffffffff1681565b600360009054906101000a900473ffffffffffffffffffffffffffffffffffffffff1681565b600080600360009054906101000a900473ffffffffffffffffffffffffffffffffffffffff1673ffffffffffffffffffffffffffffffffffffffff1663feaf968c6040518163ffffffff1660e01b815260040160a060405180830381865afa158015610322573d6000803e3d6000fd5b505050506040513d601f19601f82011682018060405250810190610346919061060c565b5050509150508091505090565b600080600260009054906101000a900473ffffffffffffffffffffffffffffffffffffffff1673ffffffffffffffffffffffffffffffffffffffff1663feaf968c6040518163ffffffff1660e01b815260040160a060405180830381865afa1580156103c3573d6000803e3d6000fd5b505050506040513d601f19601f820116820180604052508101906103e7919061060c565b5050509150508091505090565b600080600160009054906101000a900473ffffffffffffffffffffffffffffffffffffffff1673ffffffffffffffffffffffffffffffffffffffff1663feaf968c6040518163ffffffff1660e01b815260040160a060405180830381865afa158015610464573d6000803e3d6000fd5b505050506040513d601f19601f82011682018060405250810190610488919061060c565b5050509150508091505090565b600073ffffffffffffffffffffffffffffffffffffffff82169050919050565b6000819050919050565b60006104da6104d56104d084610495565b6104b5565b610495565b9050919050565b60006104ec826104bf565b9050919050565b60006104fe826104e1565b9050919050565b61050e816104f3565b82525050565b60006020820190506105296000830184610505565b92915050565b6000819050919050565b6105428161052f565b82525050565b600060208201905061055d6000830184610539565b92915050565b600080fd5b600069ffffffffffffffffffff82169050919050565b61058781610568565b811461059257600080fd5b50565b6000815190506105a48161057e565b92915050565b6105b38161052f565b81146105be57600080fd5b50565b6000815190506105d0816105aa565b92915050565b6000819050919050565b6105e9816105d6565b81146105f457600080fd5b50565b600081519050610606816105e0565b92915050565b600080600080600060a0868803121561062857610627610563565b5b600061063688828901610595565b9550506020610647888289016105c1565b9450506040610658888289016105f7565b9350506060610669888289016105f7565b925050608061067a88828901610595565b915050929550929590935056fea2646970667358221220bcfcfe8fa19d0bc597233e3975c8daa87ffcd20fa624b58291e453e4aee8fe8b64736f6c634300081c0033",
  "devdoc": {
    "kind": "dev",
    "methods": {},
    "version": 1
  },
  "userdoc": {
    "kind": "user",
    "methods": {
      "constructor": {
        "notice": "ETH/USD Sepolia  测试网预言机地址：          0x694AA1769357215DE4FAC081bf1f309aDC325306 主网预言机地址：          0x5f4ec3df9cbd43714fe2740f5e3616155c5b8419 ERC20 常用的：USDC、DAI、USDT USDC/USD 地址：0x0A6513e40db6EB1b165753AD52E80663aeA50545 DAI/USD 地址：0x0d79df66BE487753B02D015Fb622DED7f0E9798d USDT/USD 地址：0xC16679AAd21eB7D1d45aB1FA80C05e81eA1cD02f"
      }
    },
    "version": 1
  },
  "storageLayout": {
    "storage": [
      {
        "astId": 7255,
        "contract": "contracts/PriceOracle.sol:PriceOracle",
        "label": "ethUsdPriceFeed",
        "offset": 0,
        "slot": "0",
        "type": "t_contract(AggregatorV3Interface)45"
      },
      {
        "astId": 7258,
        "contract": "contracts/PriceOracle.sol:PriceOracle",
        "label": "usdcUsdPriceFeed",
        "offset": 0,
        "slot": "1",
        "type": "t_contract(AggregatorV3Interface)45"
      },
      {
        "astId": 7261,
        "contract": "contracts/PriceOracle.sol:PriceOracle",
        "label": "daiUsdPriceFeed",
        "offset": 0,
        "slot": "2",
        "type": "t_contract(AggregatorV3Interface)45"
      },
      {
        "astId": 7264,
        "contract": "contracts/PriceOracle.sol:PriceOracle",
        "label": "usdtUsdPriceFeed",
        "offset": 0,
        "slot": "3",
        "type": "t_contract(AggregatorV3Interface)45"
      }
    ],
    "types": {
      "t_contract(AggregatorV3Interface)45": {
        "encoding": "inplace",
        "label": "contract AggregatorV3Interface",
        "numberOfBytes": "20"
      }
    }
  }
}